:020000040800F2
:10000000080400209D0100085D0300085903000852
:100010005B030008E5010008AF08000800000000CD
:10002000000000000000000000000000B103000814
:10003000E7010008000000007503000889040008BB
:10004000B7010008B7010008B7010008B7010008B0
:10005000B7010008B7010008B7010008B7010008A0
:10006000B7010008B7010008E9010008B70100085E
:10007000B7010008B7010008B7010008B701000880
:10008000B7010008B7010008B7010008B701000870
:10009000B7010008B7010008B701000819020008FD
:1000A000B7010008B7010008B7010008B701000850
:1000B000E9040008190500084D050008B70100080B
:1000C000B7010008B7010008B7010008B701000830
:1000D000B70100086D070008B7010008D107000844
:1000E000B7010008B7010008B7010008B701000810
:1000F000B7010008B7010008B7010008B701000800
:10010000B7010008B7010008B7010008B7010008EF
:10011000B7010008B7010008B7010008B7010008DF
:10012000B7010008B7010008B7010008B7010008CF
:10013000B7010008B7010008B7010008B7010008BF
:10014000B7010008B7010008B7010008B7010008AF
:10015000B7010008B7010008B70100081908000836
:10016000B7010008B7010008B7010008B70100088F
:10017000B7010008B7010008B7010008B70100087F
:10018000B7010008B7010008DFF80CD000F018F83C
:100190000048004765090008080400200648804719
:1001A00006480047FEE7FEE7FEE7FEE7FEE7FEE75C
:1001B000FEE7FEE7FEE7FEE78D0400088901000880
:1001C000064C074D06E0E06840F0010394E80700A4
:1001D00098471034AC42F6D3FFF7DAFFCC09000899
:1001E000EC090008FEE7704710B5102000F058F841
:1001F00000280DD00749D1F8A80238B10020C1F875
:10020000A802BDE81040102000F03AB80120F6E73F
:1002100010BD00000080404270B5202000F040F882
:10022000164C4FF47A7580B166153146204600F0C1
:100230008FF8284600F062FB3146204600F08AF82D
:10024000BDE87040202000F01BB8402000F01EF8F0
:10025000002811D04FF480663146204600F078F82F
:10026000284600F04BFB3146204600F073F8BDE80D
:100270007040402000F004B870BD00000010024043
:100280000149086070470000143C0140014600200D
:10029000024A12680A4200D001207047143C014013
:1002A00001460020024A12680A4200D0012070472D
:1002B000143C01402DE9F041002201274FF0030CCE
:1002C00007FA02F50B682B40AB422CD106685300AD
:1002D0000CFA03F4A64306600E79D0F800809E4025
:1002E00046EA080606600E79012E01D0022E12D1D0
:1002F0008668A64386604E79D0F808809E4046EA1C
:10030000080686604668AE43466045688E7996402A
:10031000B6B235434560C568A543C560CC799C40FD
:10032000C3681C43C460521C102AC9D3BDE8F081C5
:1003300010B54B07DB0E9A40C90800EB8100016A3B
:100340000F249C40A1430162016A1143016210BD68
:100350004183704701837047FEE7FEE77047000066
:100360000249084302490860704700000000FA058E
:100370000CED00E070470000054A002903D0116829
:10038000014311607047116881431160704700009C
:1003900030380240054A002903D01168014311603A
:1003A0007047116881431160704700004038024077
:1003B000704700000CB5002201920092274908689E
:1003C00040F4803008604FF4A043086800F4003027
:1003D00000900198401C0190009810B90198984233
:1003E000F3D10868800302D50120009000E000925C
:1003F0000098012831D119484030026842F08052FB
:1004000002601748026842F4404202601348083014
:1004100002680260026842F400420260026842F42C
:10042000A0520260021F0F4B13600A6842F08072F4
:100430000A600A689201FCD50B4A40F2057111600E
:10044000016821F003010160016841F002010160CF
:100450000168C1F381010229FAD10CBD00380240C4
:100460000070004008544007003C02404FF0E0217B
:10047000042804D0086920F0040008617047086966
:1004800040F00400086170477047000010B5124842
:10049000016841F4700101601048016841F00101F8
:1004A00001600E4A00210832116002680C4B1A40AC
:1004B0000260031D0B4A1A60026822F48022026067
:1004C00006480C300160FFF775FF03494FF00060EC
:1004D0008039086010BD000088ED00E0003802405F
:1004E000FFFFF6FE1030002410B501218C072046D6
:1004F00000F0B5F800280AD00121204600F0A0F84D
:100500000449D1F8A00218B10020C1F8A00210BD22
:100510000120FAE70000424210B50A4C01212046B2
:1005200000F09DF800280AD00121204600F088F84C
:100530000549D1F8A40218B10020C1F8A40210BDE9
:100540000120FAE7000400400000424210B50A4CC6
:100550000121204600F083F800280AD0012120461E
:1005600000F06EF80549D1F8A80218B10020C1F8D2
:10057000A80210BD0120FAE7000800400000424236
:100580002DE9F0438BB081460D4601210420FFF791
:1005900001FF01210820FFF7EFFEDFF8848002222F
:1005A0000C214046FFF7C4FE4FF48050099002260C
:1005B0008DF8286003208DF8290000248DF82A404A
:1005C00001278DF82B7009A94046FFF773FEADF89F
:1005D0001850ADF81A40CDF81C90ADF82040114DE0
:1005E00006A9284600F084F86021ADF80410ADF8A3
:1005F0000670ADF81060039401A9284600F03CF89D
:100600000821284600F06CF80121284600F00CF87B
:100610000121284600F017F80BB0BDE8F083000078
:10062000000C024000080040002904D0018841F07D
:10063000800101807047018821F0800101807047AE
:10064000C94301827047002904D0018841F00101AB
:1006500001807047018821F0010101807047024646
:100660000020138A0B4092890A40002B02D0002AF6
:1006700000D001207047000030B5028C22F001024A
:100680000284058C8388028B22F0700222F0030220
:100690000C88144325F002028D8915434A882A43A9
:1006A0000D4DA84202D00D4DA8420FD122F00805F1
:1006B000CA892A4322F004058A882A4323F48073D6
:1006C00023F400730D8A1D434B8A2B4383800483DC
:1006D00089684163028430BD00000140000401408C
:1006E000028B22F008020A4302837047416370477D
:1006F00030B50288164C174DA0420DD0A8420BD041
:10070000B0F1804F08D0144B984205D0134B98425B
:1007100002D0134B984203D122F070034A881A4347
:10072000104B984206D0104B984203D022F44073ED
:100730000A891A4302804A68C2620A880285A04276
:1007400001D0A84201D1897A01860121818230BD80
:100750000000014000040140000400400008004087
:10076000000C0040001000400014004010B5164C72
:1007700040F22551204600F072F8002821D0204692
:1007800000F08DF8C1B2114B322902D0332909D0C3
:100790000EE0D3F8A40218B10022C3F8A42207E0A7
:1007A0000122FAE7D3F8A80260B10022C3F8A82218
:1007B000204600F078F84021204600F049F8012852
:1007C000F9D110BD0122F1E70010014000004242C2
:1007D00070B50E4C40F22551204600F040F800283C
:1007E00012D0204600F05BF8C4B2094D21462846DD
:1007F00000F059F82146074800F055F840212846F6
:1008000000F026F80128F9D170BD00000048004032
:10081000001401400010014010B50B4C40F225516E
:10082000204600F01CF800280DD0204600F037F8D4
:10083000C1B2064C204600F036F84021204600F0B8
:1008400007F80128F9D110BD001401400010014043
:100850000246002012880A4200D00120704770B57D
:10086000002440F66A12C1F3421301F01F0501266D
:1008700006FA05F2012B0CD0022B0DD0838A13400F
:10088000090A8E40008830400BB100B10124204697
:1008900070BD83891340F3E7038A1340F0E7808833
:1008A000C0F308007047C1F3080181807047FEE77C
:1008B00002E008C8121F08C1002AFAD17047704729
:1008C000002001E001C1121F002AFBD17047000087
:1008D00010B504466FF00400FFF7C8FD0649E008B4
:1008E000087000EB4002C2EBC0104FF6FF7202EA44
:1008F000C000488010BD00000000002070B54FF41B
:100900000775B0FBF5F1CCB2B0FBF5F105FB1106B4
:1009100004E0284600F00CF8641EE4B2002CF8D184
:10092000002E04D03046BDE8704000F001B870BD24
:100930000B49498848434FF0E021486100238B610F
:10094000086940F0010008610869C20701D0C003CE
:10095000FAD5086920F0010008618B61704700003A
:10096000000000204FF4A060FFF7FAFCA820FFF77A
:10097000AFFF42F2CF01C720FFF702FE124C0A2060
:10098000FFF7BCFFAF212046FFF7B0FE0A20FFF7BC
:10099000B5FFB4212046FFF7A9FE0A20FFF7AEFFFE
:1009A000B9212046FFF7A2FE0A20FFF7A7FFBE21CC
:1009B0002046FFF79BFE0A20FFF7A0FFC321204639
:1009C000FFF794FEDBE7000000080040EC09000898
:1009D0000000002004000000B0080008F009000832
:1009E0000400002004040000C0080008000000000B
:040000050800018965
:00000001FF
